:020000040800F2
:10000000100F002061230008490600084B06000875
:100010004F060008530600085706000800000000BD
:100020000000000000000000000000005B06000867
:100030005D060008000000005F0600086106000879
:100040007B2300087B2300087B2300087B23000818
:100050007B2300087B2300087B2300087B23000808
:100060007B230008C93400087B2300087B23000899
:100070007B2300087B2300087B2300087B230008E8
:100080007B2300087B2300087B2300087B230008D8
:100090007B2300087B2300087B2300087B230008C8
:1000A0007B230008932C00087B2300087B23000897
:1000B0004D2D00087B2300087B2300087B230008CC
:1000C0007B2300087B2300087B2300087B23000898
:1000D0007B230008692400087B2300087B23000899
:1000E0007B2300087B2300087B2300087B23000878
:1000F0007B2300087B2300087B2300087B23000868
:100100007B2300087B230008172E00087B230008B0
:100110007B2300087B2300087B2300087B23000847
:100120007B2300087B2300087B2300087B23000837
:1001300000F002F800F05EF80AA090E8000C82449B
:100140008344AAF10107DA4501D100F053F8AFF278
:10015000090EBAE80F0013F0010F18BFFB1A43F0A5
:1001600001031847BC4C0000DC4C000010F8013BB8
:100170000A4413F0030408BF10F8014B1D1108BF17
:1001800010F8015B641E05D010F8016B641E01F8C5
:10019000016BF9D1002D15D010F8014B03F00C03C1
:1001A0000C2BA1EB04040ABF10F8013BA4EB831451
:1001B000A4EB032405F1010314F8016B5B1E01F8A5
:1001C000016BF9D5914238BF10F8013BD1D370478C
:1001D0000023002400250026103A28BF78C1FBD850
:1001E000520728BF30C148BF0B6070471FB51FBD05
:1001F00010B510BD03F026FB1146FFF7F7FF00F026
:1002000066F903F044FB03B4FFF7F2FF03BC02F00E
:10021000CDF800002DE9FE4F02F036FFF44840789B
:10022000F349097840EA01200FFA80FAF048C078D3
:10023000EF49897840EA012000B20290EC48407909
:10024000EB49097940EA01200FFA80FB504604F09F
:1002500046F880468946584604F041F842464B46E7
:10026000CDE9000103F09CFC0646E24AE24B04F0B3
:1002700089F804460022E14B03F084FDE04A03C202
:10028000524600210A2003F073F85A4601210A2041
:1002900003F06EF8DA4903C903F0F4FF044622467E
:1002A0000321232003F064F8BDE8FE8F2DE9F05F01
:1002B00082468946BAF1000F74D000244FF0010B3A
:1002C0000020D04908600123462203211E2002F0AD
:1002D000E3FF4A4603213C2003F04AF881E0FFF7A0
:1002E00099FF484603F0FBFF0546C5480CC8284661
:1002F00004F046F90DD2484603F0F1FF0746C04826
:100300000CC8384604F07EF9054603F08BFF04461E
:1003100018E0484603F0E3FF0546B9480CC82846F4
:1003200003F044FF01D100240CE0484603F0D7FF5E
:100330000546B3480CC8284604F058F9074603F0B0
:1003400071FF044614F1020F10DD022C0EDA4FF497
:10035000FA7002F00CF90120AA4908604FF0000B76
:100360000020A9490860A94908603AE0B42C1ADCC9
:10037000484603F0B4FF0546A1480CC8284604F0DF
:10038000FFF802D202F015FC2BE0484603F0A7FF6D
:1003900005469B480CC8284603F0B8FF21D202F05E
:1003A000EFFB1EE022E0B42C1BDDB4F5B47F18DCBB
:1003B000484603F094FF054691480CC8284603F0D0
:1003C000A5FF02D202F0F5FB0BE0484603F087FFE1
:1003D00005468B480CC8284604F0D2F801D202F03A
:1003E000CFFBBBF1000F7FF47AAF00BFBDE8F09FF9
:1003F00070B50024FFF70EFF0022804B804903C92F
:1004000003F084FF0AD800227C4B7D4903C903F026
:10041000B9FC054603F006FF044609E00022774BCD
:10042000774903C904F0EEF8054603F0FBFE0446E5
:10043000204670BD10B502F0A7FE582200210846E4
:1004400002F054FF59220121002002F04FFF704AB0
:100450000221002002F067FF6E4A02212D2002F0E7
:1004600062FF6D4A0321002002F05DFF6B4A052107
:10047000002002F058FF10BD10B502F03BF801F06B
:100480008FFF41F61F4141F2883002F035FC41F602
:100490001F41092002F0B4FB41F61F4140F2E73052
:1004A00002F070FC4FF4165001F08FFF02F0D8F903
:1004B00002F010FB02F088F802F094F902F00BFE53
:1004C00002F0C0FF02F0BCFEFFF7B4FF10BDFFF763
:1004D000D3FF8BE001204D490C3908604FF4FA60DE
:1004E00002F045F827E04E48006820B94C48006803
:1004F00003F0F0F808E04B48006803F0EBF8002048
:1005000047490860474908600A2003F0FDF844485D
:10051000022102681E2002F02BFF434800680128D8
:1005200009D1002040490860FFF762FF04462146D8
:100530000120FFF7BBFE3D4800680028D3D016E03D
:1005400002F0A5F902F061F83948006801280ED1DF
:100550003448006858B90120324908600846022131
:100560000268462002F004FF012027490860304855
:1005700000680028E4D02B490968481E03F004F9FC
:100580000446214620480068FFF790FE1D48006899
:1005900002F061F800201D490C39086041F28830F2
:1005A00001F0E5FF1EE002F0D9FA18480C380068A7
:1005B00008B9012000E0002014490C390860052327
:1005C00064220021084602F067FE41F2883001F003
:1005D000CEFF18A20221084602F0A5FE41F28830A3
:1005E00001F0C5FF174800680028DCD172E7000061
:1005F00084000020775AF01ADCA54C400080664049
:1006000018000020800000207C0000209081234200
:1006100000000020060000200C0000201200002036
:100620009C0000205C00002078000020C003002017
:10063000600000204D495353494F4E20444F4E45D2
:100640002100000020000020704700BFFEE700BF2F
:10065000FEE700BFFEE700BFFEE770477047704748
:10066000704700000CB50020019000906C480068B5
:1006700040F480306A49086000BF6948006800F4AF
:10068000003000900198401C0190009818B9019822
:10069000B0F5A06FF1D16248006800F4003010B1ED
:1006A0000120009001E0002000900098012843D133
:1006B0005C48006840F010005A490860084600682D
:1006C00020F0030008600846006840F0020008605F
:1006D00053484068524948600846406848600846A8
:1006E000406840F4806048600846406820F47C1010
:1006F00048600846406840F4E810486008460068D2
:1007000040F08070086000BF4548006800F000704D
:100710000028F9D04248406820F003004049486072
:100720000846406840F00200486000BF3C4840680E
:1007300000F00C000828F9D10CBD10B5FFF792FFAE
:1007400010BD10B53648006840F00100344908601B
:100750000846406834490840314948600846006806
:10076000324908402E4908600846006820F480207D
:1007700008600846406820F4FE0048604FF41F00FF
:100780008860FFF7DAFF4FF000602949086010BD6C
:1007900010B5002100200022214B5B6803F00C0102
:1007A00021B1042906D0082928D107E0214B224C89
:1007B000236027E01F4B204C236023E0184B5B682D
:1007C00003F47010164B5B6803F48032022303EBD2
:1007D000904022B9194B4343174C23600DE0104B56
:1007E0005B6803F4003323B1144B4343124C236082
:1007F00003E0104B4343104C236003E00D4B0E4CC1
:10080000236000BF00BF064B5B68C3F303130C4CAF
:10081000E15C094B1B68CB40074C236010BD000016
:1008200000100240002002400000FFF8FFFFF6FE2B
:1008300008ED00E000127A002800002000093D00C9
:100840002C00002031490143314A1160704770B5D6
:10085000002100230F22C47804B32D4C246804F433
:10086000E064C4F5E064210AC1F10403CA4044789D
:1008700004FA03F18478144021430901254C0678D9
:10088000A155047804F01F050124AC4005786D11D2
:10089000AD0005F1E025C5F8004109E0047804F059
:1008A0001F050124AC401C4D0678761145F8264002
:1008B00070BD1A4A0A400243154B1B1F1A6070474D
:1008C00039B1134A121D12680243114B1B1D1A60E5
:1008D00006E00F4A121D126882430D4B1B1D1A6061
:1008E0007047042808D14FF0E021096941F0040164
:1008F0004FF0E022116107E04FF0E021096921F09B
:1009000004014FF0E0221161704700000000FA0579
:100910000CED00E000E400E080E100E080FFFF1F5C
:10092000002044490860091D0860091D0860091D70
:10093000086041483F4914310860704700213D4933
:100940008279002A3AD00A46126803689A430B4615
:100950001A600A1D126803689A430B1D1A60027917
:1009600011440A6803681A430A60324A083212685E
:1009700003689A432F4B08331A601A1D12680368E4
:100980009A432C4B0C331A604279102A0ED11A1F4D
:10099000126803681A43274B08331A601A1D12683D
:1009A00003681A43234B0C331A600DE02149427946
:1009B00011440A6803681A430A6005E00279114489
:1009C0000A6803689A430A60704700210160017158
:1009D0000C2141710021817170471649103109685D
:1009E0000143144A10321160704701460020114A39
:1009F000143212680A400AB1012000E0002070475A
:100A00000C49143108607047014600200022094B50
:100A10001B6803EA0102074B14331B680B4013B138
:100A20000AB1012000E0002070470249143108603B
:100A30007047000000040140FFFF0F0010B504469E
:100A4000CC48844208D10121042000F02DFB002174
:100A5000042000F029FB46E0C748844208D1012168
:100A6000082000F021FB0021082000F01DFB3AE0E7
:100A7000C248844208D10121102000F015FB00215A
:100A8000102000F011FB2EE0BD48844208D1012166
:100A9000202000F009FB0021202000F005FB22E0CF
:100AA000B848844208D10121402000F0FDFA00211D
:100AB000402000F0F9FA16E0B348844208D1012141
:100AC000802000F0F1FA0021802000F0EDFA0AE029
:100AD000AE48844207D10121801500F0E5FA0021DB
:100AE000A01500F0E1FA10BD10B50121084600F094
:100AF000DBFA0021012000F0D7FA10BD2DE9F0410A
:100B0000024600250026002000230024002791F83B
:100B100003C00CF00F0591F803C00CF0100CBCF1F1
:100B2000000F03D091F802C04CEA050591F800C00F
:100B3000BCF1000F31D0146800202BE04FF0010C05
:100B40000CFA00F3B1F800C00CEA03069E4220D173
:100B500083004FF00F0C0CFA03F7BC4305FA03FCBB
:100B60004CEA040491F803C0BCF1280F06D14FF001
:100B7000010C0CFA00FCC2F814C00AE091F803C0A2
:100B8000BCF1480F05D14FF0010C0CFA00FCC2F883
:100B900010C0401C0828D1D31460B1F800C0BCF1CB
:100BA000FF0F34DD546800202EE000F1080C4FF0F8
:100BB000010808FA0CF3B1F800C00CEA03069E42E3
:100BC00021D183004FF00F0C0CFA03F7BC4305FA58
:100BD00003FC4CEA040491F803C0BCF1280F05D1D2
:100BE00000F1080C08FA0CF8C2F8148091F803C060
:100BF000BCF1480F07D100F1080C4FF0010808FACA
:100C00000CF8C2F81080401C0828CED35460BDE810
:100C1000F0814FF6FF710180022181700421C170C3
:100C200070470246002093680B400BB1012000E0A2
:100C3000002070470146886880B270470246002055
:100C4000D3680B400BB1012000E000207047014643
:100C5000C86880B2704701617047416170470AB14E
:100C6000016100E041617047C16070474FF480321C
:100C70000A438261816182618269826970470246AA
:100C80000020434B18684FF68073184040EA02106A
:100C900008433F4B186070473E49C8617047F0B544
:100CA0000A46002300240021002500F00046B6F18A
:100CB000004F02D1364EF16901E0354E7168C0F344
:100CC000034583B200F44016B6F5401F08D121F069
:100CD00070612F4E766826F070662D4F7E6012E0B0
:100CE00000F48016B6F5801F06D1032606FA05F437
:100CF000A14341F0706106E0460D360103FA06F6A5
:100D0000B14341F0706122B1460D360103FA06F697
:100D1000314300F00046B6F1004F02D11C4EF161A4
:100D200001E01B4E7160F0BD30B500228B071C0F37
:100D30000F2303FA04F2164B08338C1053F82430B7
:100D40009343134C08348D1044F8253023468C10FF
:100D500053F824308C07240F00FA04F423430C4C7E
:100D600008348D1044F8253030BD0A49DC31086064
:100D70007047000000080140000C014000100140D5
:100D80000014014000180140001C014000200140F7
:100D90000000014000002042DF48006840F00100F0
:100DA000DD49086008464068DC490840DA49486087
:100DB00008460068DA490840D749086008460068D4
:100DC00020F4802008600846406820F4FE00486057
:100DD0004FF41F0088607047CF49096821F48031C3
:100DE000CD4A11601146096821F480211160B0F5E7
:100DF000803F03D0B0F5802F0ED106E0C6490968C8
:100E000041F48031C44A116007E0C349096841F4E4
:100E1000A021C14A116000E000BF00BF704710B5BB
:100E200001460022002300204A11012A02D1BA4CB7
:100E3000236806E0022A02D1B74C236A01E0B64CCF
:100E4000636A01F01F02012494401C400CB1012090
:100E500000E0002010BD38B50020009000240025DF
:100E600000BF3120FFF7DBFF05460098401C0090D3
:100E70000098B0F5A06F01D0002DF2D03120FFF71F
:100E8000CEFF08B1012400E00024204638BD014611
:100E90000020A14A106820F0F80040EAC10010606C
:100EA0007047A04908607047024600209A4B586876
:100EB00020F47C1042EA01031843974B58607047B6
:100EC00098490866704701460020934A506820F010
:100ED00003000843506070478F48406800F00C00E2
:100EE0007047014600208C4A506820F0F00008430B
:100EF0005060704701460020874A506820F4E06047
:100F000008435060704701460020834A506820F42F
:100F1000605040EAC1005060704729B17E4A527A61
:100F200002437D4B5A7204E07B4A527A82437A4BE9
:100F30005A7270477B49D8310860704701460020DB
:100F4000754A506820F440400843506070470021C3
:100F5000714A20321170704A82F82010012802D0A4
:100F600004280AD104E001216B4A2032117005E007
:100F70000521694A2032117000E000BF00BF7047B0
:100F80006949086070476449096A0143624A11620D
:100F90007047654944390860704730B50021002228
:100FA000002400235C4D6D6805F00C0121B104297B
:100FB00005D0082923D105E05C4D056022E05B4D9A
:100FC00005601FE0544D6D6805F47012524D6D6858
:100FD00005F48034022505EB92421CB9544D55436B
:100FE00005600BE04C4D6D6805F400351DB1504DAA
:100FF0005543056002E04D4D5543056002E04B4D01
:10100000056000BF00BF444D6D6805F0F00109099F
:10101000484D6B5C0568DD4045603F4D6D6805F4EB
:10102000E061090A434D6B5C4568DD4085603A4DDF
:101030006D6805F46051C90A3E4D6B5C4568DD4042
:10104000C560354D6D6805F44041890B3A4D6B5CC8
:10105000C568B5FBF3F5056130BD29B12E4A52696B
:1010600002432D4B5A6104E02B4A526982432A4BBA
:101070005A61704729B1284A92690243264B9A6106
:1010800004E0254A92698243234B9A61704729B153
:10109000214AD2690243204BDA6104E01E4AD26938
:1010A00082431D4BDA61704729B11B4AD268024363
:1010B000194BDA6004E0184AD2688243164BDA60B2
:1010C000704729B1144A12690243134B1A6104E0B4
:1010D000114A12698243104B1A6170471249403914
:1010E000086070470F49C86470470B49C871704762
:1010F0000948406A40F080700749486270470146DD
:101100000020054A92680A400AB1012000E0002050
:101110007047014988727047001002400000FFF8D4
:10112000FFFFF6FE000042428004424200127A00B5
:1011300000093D003C0000204C00002010B5044692
:10114000FE48844208D10121C014FFF7ADFF002101
:10115000E014FFF7A9FFC4E0B4F1804F08D10121EA
:101160000846FFF7AEFF00210120FFF7AAFFB8E015
:10117000F348844208D101210220FFF7A2FF002199
:101180000220FFF79EFFACE0EE48844208D1012127
:101190000420FFF796FF00210420FFF792FFA0E054
:1011A000E948844208D101210820FFF78AFF002185
:1011B0000820FFF786FF94E0E448844208D101212B
:1011C0001020FFF77EFF00211020FFF77AFF88E054
:1011D000DF48844208D101212020FFF772FF00215F
:1011E0002020FFF76EFF7CE0DA48844208D101211D
:1011F0004014FFF759FF00216014FFF755FF70E01E
:10120000D548844209D10121C804FFF74DFF0021D0
:101210004FF40020FFF748FF63E0D048844209D133
:1012200001210805FFF740FF00214FF48010FFF770
:101230003BFF56E0CA48844209D101214805FFF727
:1012400033FF00214FF40010FFF72EFF49E0C5489F
:10125000844208D101214020FFF733FF00214020C4
:10126000FFF72FFF3DE0C048844208D101218020D4
:10127000FFF727FF00218020FFF723FF31E0BB4865
:10128000844208D101218015FFF71BFF0021A01522
:10129000FFF717FF25E0B648844209D10121080471
:1012A000FFF702FF00214FF48030FFF7FDFE18E04A
:1012B000B048844209D101214804FFF7F5FE00211E
:1012C0004FF40030FFF7F0FE0BE0AB48844208D14A
:1012D00001218804FFF7E8FE00214FF48020FFF78A
:1012E000E3FE10BD00220288944B98420ED0994B29
:1012F00098420BD0B0F1804F08D0914B984205D066
:10130000904B984202D0904B984204D14FF68F7385
:101310001A404B881A438D4B984207D08C4B984209
:1013200004D04FF6FF431A40CB881A4302808B88C3
:1013300083850B880385814B98420BD0854B98425F
:1013400008D08B4B984205D08A4B984202D08A4BEA
:10135000984201D10B7A038601238382704770B5CE
:10136000002400220023058C4FF6FE7635400584CC
:10137000028C8388048B4FF68F752C40B51E2C4051
:101380000D882C43751E2A400D892A434D882A4317
:101390006A4DA8420BD06F4DA84208D0744DA842A8
:1013A00005D0744DA84202D0734DA84213D14FF618
:1013B000F7752A404D892A434FF6FB752A408D88E0
:1013C0002A434FF6FF652B404FF6FF552B408D8982
:1013D0002B43CD892B4383800483CD88858602846B
:1013E00070BD70B5002400220023058C4FF6EF7607
:1013F00035400584028C8388048B48F6FF752C40A9
:101400004FF6FF452C400D884FF6FF7606EA05257E
:101410002C434FF6DF752A400D8906EA05152A434D
:101420004D8806EA05152A43444DA84202D0494D8D
:10143000A8421DD14FF67F752A404D894FF6FF76A1
:1014400006EA05152A434FF6BF752A408D8806EA3D
:1014500005152A434FF6FF352B404FF2FF752B4001
:101460008D8906EA85052B43CD8906EA85052B4340
:1014700083800483CD880587028470BD70B5002405
:1014800000220023058C4FF6FF6635400584028C50
:101490008388848B4FF68F752C404FF6FC752C405B
:1014A0000D882C434FF6FF552A400D894FF6FF76E5
:1014B00006EA05252A434D8806EA05252A431F4DDD
:1014C000A84202D0234DA8421DD14FF2FF752A40F9
:1014D0004D894FF6FF7606EA05252A434FF6FF357C
:1014E0002A408D8806EA05252A434EF6FF752B40D3
:1014F0004DF6FF752B408D8906EA05152B43CD89E6
:1015000006EA05152B4383808483CD888587028472
:1015100070BD70B5002200230024058C4EF6FF76C6
:1015200035400584038C8488828B48F6FF752A40F9
:101530004FF6FF452A400D8820E00000002C0140B6
:101540000004004000080040000C00400010004073
:101550000014004000340140004C014000500140A4
:101560000054014000180040001C004000200040D2
:101570000040014000440140004801404FF6FF7622
:1015800006EA05252A434DF6FF752B400D8906EA2C
:1015900005352B434D8806EA05352B43FA4DA84205
:1015A00002D0FA4DA84208D14BF6FF752C408D8928
:1015B0004FF6FF7606EA85152C4384808283CD881A
:1015C000A0F84050038470BD828B4FF2FF331A4065
:1015D0008283828B4FF6FF7303EA01231A438283CF
:1015E0007047F0B50C461546002200210026078CF6
:1015F0004EF6FF7C07EA0C070784828B018C4FF6BE
:10160000FF7707EA043640F6FF473A404FF6FF7788
:1016100007EA05273A434FF6FF7707EA03373A43CD
:10162000D94FB8420ED0D94FB8420BD0B0F1804F4D
:1016300008D0D74FB84205D0D64FB84202D0D64FC7
:10164000B84206D14DF6FF77394046F4805739430A
:1016500005E047F6FF57394044F480573943828309
:101660000184F0BD828B4FF6F3731A408283828B24
:101670000A4382837047F0B50C46154600220021CC
:101680000026078C4FF6FF6C07EA0C070784828B55
:10169000018C4FF6FF7707EA04264FF60C773A40A5
:1016A0004FF6FF7707EA03172F433A43B64FB84286
:1016B0000ED0B64FB8420BD0B0F1804F08D0B44F27
:1016C000B84205D0B34FB84202D0B34FB84206D1AA
:1016D0004FF6FF57394046F48077394305E04FF223
:1016E000FF57394044F48077394382830184F0BD49
:1016F000028B4FF2FF331A400283028B4FF6FF73C7
:1017000003EA01231A4302837047F0B50C461546DD
:10171000002200210026078C4FF6EF7C07EA0C0719
:101720000784028B018C4FF6FF7707EA041640F618
:10173000FF473A404FF6FF7707EA03373A434FF641
:10174000FF7707EA05273A438F4FB8420ED08F4FF5
:10175000B8420BD0B0F1804F08D08D4FB84205D0C1
:101760008C4FB84202D08C4FB84206D14FF6DF778B
:10177000394046F01007394305E04FF65F773940AE
:1017800044F01007394302830184F0BD028B4FF609
:10179000F3731A400283028B0A4302837047F0B549
:1017A0000C46154600220021068C4FF6FE773E407F
:1017B0000684028B018C4FF60C7632407E1C06EAC2
:1017C00003162E433243704EB0420ED06F4EB042DD
:1017D0000BD0B0F1804F08D06D4EB04205D06D4EA9
:1017E000B04202D06C4EB04206D14FF6FD76314089
:1017F00044F00106314305E04FF6F576314044F000
:101800000106314302830184F0BD70B505460C46E4
:101810005D4885420ED05D4885420BD0B5F1804FC2
:1018200008D05B48854205D05A48854202D05A48C4
:10183000854200D100E000BF208850B92389A288EA
:1018400061882846FFF7ABFFE1882846FFF79EFF37
:1018500025E0208804280AD12389A28861882846A7
:10186000FFF753FFE1882846FFF742FF17E0208883
:1018700008280AD12389A28861882846FFF7FBFE41
:10188000E1882846FFF7EEFE09E02389A2886188F7
:101890002846FFF7A6FEE1882846FFF795FE70BDB3
:1018A0002DE9F04105460C4600260127608808B95D
:1018B000022600E00026A088012801D1022700E0CE
:1018C00001272088A0B92389A28861882846FFF7CC
:1018D00066FFE1882846FFF759FF23893A463146DB
:1018E0002846FFF712FFE1882846FFF701FF13E0C3
:1018F0002389A28861882846FFF707FFE1882846E8
:10190000FFF7F6FE23893A4631462846FFF747FFA0
:10191000E1882846FFF73AFFBDE8F0810A884B8846
:101920001A438B881A43CB881A430B891A434B8975
:101930001A438B891A43A0F8442070474FF6FF7171
:10194000818000210180C1804180017270470021A7
:10195000018041808180C180018141818181C1817B
:101960007047002101804180012181800021C180D8
:10197000018170470021018041808180C180018107
:101980004181818170470000002C014000340140FA
:101990000004004000080040000C004021B1028813
:1019A00042F00102028004E002884FF6FE731A4002
:1019B0000280704731B1B0F8442042F40042A0F8F0
:1019C000442005E0B0F84420C2F30E02A0F8442001
:1019D00070471AB183890B43838102E083898B436B
:1019E000838170478182704741EA0203A0F8483042
:1019F00070471AB183890B43838102E083898B434B
:101A00008381704701894FF6F87211400181704758
:101A10000A46002101894FF68F7319401143018155
:101A2000704730B504460D4629462046FFF7F0FFC3
:101A3000208940F00700208130BD2DE9F0410446A7
:101A40000D4616461F46602D06D13B460122314603
:101A50002046FFF75AFE05E03B460122314620466C
:101A6000FFF79DFE29462046FFF7D2FF208940F070
:101A700007002081BDE8F08130B50C4600210189C6
:101A8000C9B24FF6FF7505EA0325154325432943DF
:101A9000018130BD2DE9F04105460E4617469846B6
:101AA000002443463A4631462846FFF7E5FF2C8995
:101AB0004FF6F870044044F007044FF68F7004406E
:101AC00044F070042C81BDE8F081F0B504460D4669
:101AD00016461F463B46324629462046FFF7CCFFB6
:101AE000208940F480402081F0BD018582827047CA
:101AF0000A46002101884FF68F7319401143018077
:101B00007047F0B50C4615461E4600210022002302
:101B10000189028B038C4FF6F877394021434FF649
:101B2000FC473A4040F201173A434FF6DD773B401D
:101B30004FF6FF7707EA06172F433B4301810283E5
:101B40000384F0BD0A460021018B4FF68F731940C4
:101B50001143018370470A460021018B48F6FF7349
:101B600019404FF6FF7303EA0223194301837047BC
:101B70000A460021818B4FF68F73194011438183F0
:101B800070470A460021818B48F6FF7319404FF6D3
:101B9000FF7303EA022319438183704721B102884E
:101BA00042F08002028004E002884FF67F731A4000
:101BB0000280704721B1828842F00402828004E0F2
:101BC00082884FF6FB731A408280704721B1828869
:101BD00042F00802828004E082884FF6F7731A40D0
:101BE0008280704721B1828842F00102828004E045
:101BF00082884FF6FE731A40828070470A460021A1
:101C0000018B4FF6F77319401143018370470A4661
:101C10000021018B4FF2FF7319404FF6FF7303EA67
:101C200002231943018370470A460021818B4FF636
:101C3000F77319401143818370470A460021818B55
:101C40004FF2FF7319404FF6FF7303EA0223194363
:101C5000818370470A460021018B4FF6FB731940C0
:101C60001143018370470A460021018B4FF6FF3371
:101C700019404FF6FF7303EA0223194301837047AB
:101C80000A460021818B4FF6FB7319401143818373
:101C900070470A460021818B4FF6FF3319404FF6FB
:101CA000FF7303EA02231943818370470A46002128
:101CB000018B4FF67F7319401143018370470A4629
:101CC0000021018BC1F30E014FF6FF7303EA0223DB
:101CD0001943018370470A460021818B4FF67F73B9
:101CE00019401143818370470A460021818BC1F35B
:101CF0000E014FF6FF7303EA0223194381837047F5
:101D00000A460021018C4FF6FD73194011430184EE
:101D100070470A460021018C4FF6F77319401143B2
:101D2000018470470A460021018C4FF6DF73194089
:101D30004FF6FF7303EA02131943018470470A4602
:101D40000021018C4FF67F7319404FF6FF7303EAB1
:101D500002131943018470470A460021018C4FF693
:101D6000FF5319404FF6FF7303EA0223194301841E
:101D700070470A460021018C4FF2FF7319404FF65D
:101D8000FF7303EA02231943018470470A460021C6
:101D9000018C4DF6FF7319404FF6FF7303EA0233CF
:101DA00019430184704730B5002301248C40A3B24D
:101DB000048C9C430484048C02FA01F5ADB22C43DC
:101DC000048430BD30B5002304248C40A3B2048CBD
:101DD0009C430484048C02FA01F5ADB22C430484C4
:101DE00030BD70B503460020002418461830012588
:101DF0008D40ACB21D8CA5431D8409B1082909D1C1
:101E000000EB6100056825F0700505600568154365
:101E100005600EE00D1FC5F34E052844056825F446
:101E2000E045056005684FF6FF7606EA0226354371
:101E3000056070BD21B1028842F00202028004E018
:101E400002884FF6FD731A400280704721B1028864
:101E500042F00402028004E002884FF6FB731A404D
:101E60000280704721B1828842F08002828004E0C3
:101E700082884FF67F731A408280704702884FF63F
:101E8000F7731A40028002880A43028070478288F2
:101E90004FF68F731A40828082880A43828070478F
:101EA00002894FF6F8731A40028102890A430281BF
:101EB000704702894FF67F731A40028102890A43F4
:101EC00002817047818470478185704781867047A1
:101ED0000187704781877047A0F8401070470288DB
:101EE0004FF6FF431A40028002880A43028070477F
:101EF0000146888E70470146088F70470146888FDB
:101F000070470146B1F8400070470146888C704721
:101F10000146088D704702460020138A0B400BB122
:101F2000012000E000207047CA430282704730B5AC
:101F30000246002000230024158A05EA0103958942
:101F400005EA010413B10CB1012000E0002030BD0E
:101F5000CA4302827047000010B50446FB48844221
:101F600009D101218803FFF79FF800214FF4804039
:101F7000FFF79AF832E0F648844209D1012148047B
:101F8000FFF79FF800214FF40030FFF79AF825E0A3
:101F9000F048844209D101218804FFF792F800211A
:101FA0004FF48020FFF78DF818E0EB48844209D108
:101FB0000121C804FFF785F800214FF40020FFF746
:101FC00080F80BE0E548844208D101210805FFF7BD
:101FD00078F800214FF48010FFF773F810BD2DE959
:101FE000F04786B005460E460024A24600BFA14633
:101FF0000027B08900B100BF2F462C8A4CF6FF7035
:102000000440F08804432C82AC894EF6F31004405F
:10201000B08831890843718908430443AC81AC8A94
:102020004FF6FF400440B0890443AC8201A8FEF79C
:10203000B4FFC648874202D1DDF810A001E0DDF808
:102040000CA0A88900F4004040B10AEBCA0000EBE4
:102050000A1031684900B0FBF1F807E00AEBCA004A
:1020600000EB0A1031688900B0FBF1F86420B8FB7E
:10207000F0F004012009642101FB1089A88900F413
:10208000004040B1322000EBC900B0FBF1F000F09D
:102090000700044308E0322000EB09106421B0FB84
:1020A000F1F000F00F0004432C8106B0BDE8F0878A
:1020B0004FF41651016000218180C18001810C2103
:1020C000418100218181704710B502460020108AAD
:1020D0004FF2FF0318400B884C8823438C8823431E
:1020E000CC8823431843108210BD00210180418019
:1020F0008180C180704721B1828942F4005282817F
:1021000004E082894DF6FF731A4082817047F0B572
:102110000346002400260025002040F66A17B94235
:1021200000D100BF1846C1F3421401F01F06012779
:1021300007FA06F5012C01D10C3004E0022C01D184
:10214000103000E014301AB107682F43076002E036
:102150000768AF430760F0BD1AB1838A0B438382DF
:1021600002E0838A8B4383827047028A4FF6F073C2
:102170001A400282028A0A430282704782894FF221
:10218000FF731A40828182890A438281704721B19C
:10219000828942F00202828104E082894FF6FD7357
:1021A0001A4082817047028A4FF6DF731A4002821A
:1021B000028A0A430282704721B1028A42F48042B5
:1021C000028204E0028A4BF6FF731A4002827047D3
:1021D000C1F308028280704701468888C0F3080076
:1021E0007047818941F0010181817047028BD2B231
:1021F0000283028B42EA012202837047028B02F4BF
:102200007F420283028B0A430283704721B1828A94
:1022100042F02002828204E0828A4FF6DF731A4085
:102220008282704721B1828A42F01002828204E0E9
:10223000828A4FF6EF731A408282704721B1828AF8
:1022400042F00802828204E0828A4FF6F7731A4055
:102250008282704721B1828942F40042828103E088
:102260008289C2F30E028281704721B1828A42F4D0
:102270000062828204E0828A4FF2FF731A408282F7
:102280007047828A4FF6FB731A408282828A0A4321
:102290008282704721B1828A42F00202828204E087
:1022A000828A4FF6FD731A408282704702460020F0
:1022B000B1F5007F00D100BF13880B400BB10120A6
:1022C00000E00020704701F40072B2F5007F00D1F9
:1022D00000BFCA430280704770B502460024002345
:1022E0000025002040F66A16B14200D100BFC1F3BC
:1022F000421501F01F03012606FA03F3012D02D156
:102300009689334006E0022D02D1168A334001E05F
:10231000968A33400C12012606FA04F416883440DB
:1023200013B10CB1012000E0002070BD10B50022F7
:10233000002340F66A14A14200D100BF0A12012412
:102340009440A3B2DC43048010BD0000003801407B
:102350000044004000480040004C00400050004055
:102360000948804709480047FEE7FEE7FEE7FEE729
:10237000FEE7FEE7FEE7FEE7FEE7FEE70448054965
:10238000054A064B7047000043070008310100086A
:1023900010090020100F0020100B0020100B00204F
:1023A00010B54FF4A060FEF74DFA10BD014600BF16
:1023B000704700BF4B4A128802F04002002AF9D051
:1023C000C2B2484B1B1D1A80704710B586B0044638
:1023D000012144F20400FEF74DFE4248FFF7BCFD28
:1023E0004FF40070ADF8140003208DF8160018208B
:1023F0008DF8170005A93C48FEF780FB4FF480607C
:10240000ADF8140004208DF8170005A93648FEF732
:1024100075FB25208DF8000003208DF801008DF854
:10242000020001208DF803006846FEF710FA0194BF
:102430000020ADF80800ADF80A00ADF80C00ADF8CA
:1024400010000C20ADF80E0001A92648FFF7C7FDCB
:10245000012240F225512348FFF759FE012121486E
:10246000FFF749FE06B010BD10B540F225511D48DA
:10247000FFF732FF10B31B48FFF7AEFEC4B21B4894
:10248000008800F40040C8B91848008800F4804073
:1024900060B10A2C03D000201449088020E01348C2
:1024A000008840F400401149088019E00D2C06D145
:1024B0000E48008840F480400C49088010E00B482A
:1024C0000088C0F30D000A490C5408480088401CDD
:1024D0000649088008460088C72801DD00200880DA
:1024E00010BD0000003801400008014054000020E9
:1024F000C403002010B56FF00400FEF7F2F92E4877
:1025000000682E49B0FBF1F02D49087008460078AC
:1025100000EB4001C1EBC0104FF6FF7101EAC000B3
:102520002849088010BD0146254A12784A434FF0D9
:10253000E0235A6100229A611A46126942F00102B0
:102540001A6100BF4FF0E022106900F001021AB1D9
:1025500000F48032002AF5D04FF0E022126922F018
:1025600001024FF0E0231A6100229A617047014690
:10257000144A12884A434FF0E0235A6100229A61BC
:102580001A46126942F001021A6100BF4FF0E022C0
:10259000106900F001021AB100F48032002AF5D06F
:1025A0004FF0E022126922F001024FF0E0231A619D
:1025B00000229A61704700002800002000127A0073
:1025C000560000205800002008B501213020FEF7F9
:1025D00051FD4FF47070ADF8000048208DF80300F5
:1025E00003208DF8020069467148FEF787FA1E2025
:1025F000ADF8000048208DF8030003208DF802009C
:1026000069466C48FEF77AFA08BD6B4800680128F5
:1026100004D16948001F0068012808D06748006895
:10262000012810D16548001D006801280BD1012048
:1026300063490860634908606348006848B901203D
:102640006249086005E000205D4908605D49086056
:10265000704700BFFCE770B504460025012C02D18D
:102660005B49086002E00020594908600020544995
:102670000860584908605849086000F0FCFA00F00A
:10268000BCFB59E001204F49091D08605348D0F8B0
:102690001C01012802D14848006860B14648006822
:1026A000012803D14448001F006820B14248001DA2
:1026B000006801280ED14FF4FA7300221946104623
:1026C00000F0FAF800234FF4FA721946104600F0B1
:1026D0001DF931E03948001D0068012802D1374852
:1026E000006860B135480068012803D13348001DF7
:1026F000006820B13148001F006801280ED1002376
:102700004FF4FA721946104600F0D6F84FF4FA73F7
:1027100000221946104600F0F9F80DE000234FF4AE
:10272000FA721946104600F0C7F800234FF4FA7207
:102730001946104600F0EAF8254800680028A1D1A3
:102740002348006828B900201E49091D086000F0D0
:1027500005FA27E0184808380068012804D017480F
:1027600008300068012806D101201A4908600020BD
:102770001B49086016E0002340F2EE22194610467D
:1027800000F09AF8002340F2EE221946104600F0BD
:10279000BDF81420FFF7EBFE00F0E0F94FF4FA600B
:1027A000FFF7E5FE0E4800680028D3D170BD000099
:1027B0000010014000140140200122420881224201
:1027C00064000020908123425C0000206000002013
:1027D0006C0000207C0000208000002000002242CD
:1027E0007000002008B501210420FEF743FC0C20F6
:1027F000ADF8000048208DF8030003208DF802009A
:1028000069461548FEF77AF908BD10B51348006807
:1028100070B9002340F2EE221946104600F04CF841
:1028200040F2EE2300221946104600F06FF811E046
:102830000A48001D006868B940F2EE2300221946DC
:10284000104600F039F8002340F2EE2219461046F7
:1028500000F05CF810BD00000008014008012142B2
:1028600008B501218020FEF705FC7E20ADF80000B0
:1028700010208DF8030003208DF8020069460D48F2
:10288000FEF73CF97E210B48FEF7E7F908BD10B5CD
:1028900008210848FEF7DFF94FF47A70FFF767FE6A
:1028A00008210448FEF7D9F94FF47A70FFF75FFE6C
:1028B00010BD0000001C014030B5B0F57A7F01DB8F
:1028C00040F2E730B1F57A7F01DB40F2E731B2F553
:1028D0007A7F01DB40F2E732B3F57A7F01DB40F229
:1028E000E733002800DA0020002900DA0021002A5E
:1028F00000DA0022002B00DA0023BA4D28802D1DBB
:1029000029802D1D2A802D1D2B8030BD30B5B0F5BE
:102910007A7F01DB40F2E730B1F57A7F01DB40F2EC
:10292000E731B2F57A7F01DB40F2E732B3F57A7F27
:1029300001DB40F2E733002800DA0020002900DA4A
:102940000021002A00DA0022002B00DA0023A64D25
:1029500028802D1D29802D1D2A802D1D2B8030BD06
:1029600010B588B0002401210220FEF790FB9F489B
:1029700000689F49B0FBF1F0401E84B240F2E7309E
:10298000ADF81800ADF814400020ADF81A00ADF80D
:10299000160005A993483438FEF7A4FC6020ADF872
:1029A00004000120ADF806000020ADF80A00ADF8E3
:1029B0000C0001A98B483438FEF7D1FC0821894866
:1029C0003438FFF71BF901A986483438FEF709FDB2
:1029D000082184483438FFF71AF901A981483438AE
:1029E000FEF74CFD08217F483438FFF71DF901A997
:1029F0007C483438FEF78DFD08217A483438FFF7DB
:102A00001CF9012177483438FFF7C8F801217548CF
:102A10003438FEF7C3FF08B010BD10B588B00024ED
:102A200001210420FEF733FB704800687049B0FBB9
:102A3000F1F0401E84B240F2E730ADF81800ADF876
:102A400014400020ADF81A00ADF8160005A966483C
:102A50003438FEF747FC7020ADF804000120ADF8D3
:102A600006000020ADF80A00ADF80C0001A95E4890
:102A70003438FEF774FC08215B483438FFF7BEF8A1
:102A800001A959483438FEF7ACFC082156483438BF
:102A9000FFF7BDF801A954483438FEF7EFFC0821D0
:102AA00051483438FFF7C0F801A94F483438FEF7D1
:102AB00030FD08214C483438FFF7BFF801214A485F
:102AC0003438FFF76BF8012147483438FEF766FFCA
:102AD00008B010BD08B501214C20FEF7CBFA4FF429
:102AE0007060ADF8000003208DF8020018208DF80A
:102AF000030069463F48FEF701F840F2C330ADF8E5
:102B0000000003208DF8020018208DF803006946AC
:102B10003948FDF7F3FFC020ADF8000003208DF821
:102B2000020018208DF8030069463248FDF7E6FFE1
:102B30007820ADF8000003208DF8020010208DF8F9
:102B4000030069462D48FDF7D9FF78212B48FEF791
:102B500082F8FFF705FFFFF760FF08BD012021495C
:102B60000880091D0880091D0880091D08801E496C
:102B70000880091D0880091D0880091D088070470C
:102B800010B540F2EE23002219461046FFF794FEDE
:102B9000002340F2EE2219461046FFF7B7FE32201E
:102BA000FFF7E5FCFFF7DAFF4FF4FA60FFF7DFFC11
:102BB00010BD10B5002340F2EE2219461046FFF773
:102BC0007BFE40F2EE23002219461046FFF79EFEE0
:102BD0003220FFF7CCFCFFF7C1FF4FF4FA60FFF79C
:102BE000C6FC10BD3404004034080040280000201A
:102BF00000127A0000080140000C0140001801405A
:102C00007FB505460C460121C802FEF733FAADF840
:102C10000850ADF804400020ADF80A00ADF80600F9
:102C200001A95048FEF75EFB002201214D48FEF746
:102C3000D0FE19208DF8000000208DF8010003203F
:102C40008DF8020001208DF803006846FDF7FFFDB6
:102C500000214448FEF7A2FE7FBD10B50020424986
:102C60000860002201213F48FEF7B3FE00213D48E5
:102C7000FEF794FE10BD10B501203B49086001220B
:102C800011463848FEF7A5FE01213648FEF786FEBC
:102C900010BD10B501213348FFF749F958B30121A0
:102CA0003048FFF755F9FFF7B0FC304800680128BD
:102CB00021D12F480068401C2D4908600846022198
:102CC0000268462000F054FB00202A49086028488A
:102CD000006829490968884203D101202749086012
:102CE00005E001202649086000202049086000F026
:102CF00076F8FFF7B2FF10BD7FB505460C460121FF
:102D00000846FEF7C4F9ADF80850ADF804400020BD
:102D1000ADF80A00ADF8060001A94FF08040FEF7BB
:102D2000E1FA012241218807FEF753FE1C208DF8AD
:102D3000000000208DF8010004208DF80200012021
:102D40008DF803006846FDF782FD7FBD10B50121B7
:102D50008807FFF7ECF818B101218807FFF7F8F8AA
:102D600010BD0000002C0140888123426400002037
:102D70005C0000206C0000209C000020200000204F
:102D8000700000207FB505460C4601210820FEF7A3
:102D90007EF9ADF80850ADF804400020ADF80A0007
:102DA000ADF8060001A93648FEF79CFA0022012181
:102DB0003348FEF70EFE32208DF8000003208DF818
:102DC000010004208DF8020001208DF80300684600
:102DD000FDF73DFD00212A48FEF7E0FD7FBD10B55F
:102DE000002028490860002201212548FEF7F1FD56
:102DF00000212348FEF7D2FD10BD10B50120214966
:102E00000860012211461E48FEF7E3FD01211C481F
:102E1000FEF7C4FD10BD10B501211948FFF787F872
:102E200068B301211648FFF793F800F08BFB1648B2
:102E3000006801F0DDFC0446224605212D2000F04B
:102E400097FA12491048006801F0F2FC17D21049B5
:102E50000D48006801F06BFD11D200200D4908609B
:102E60000D490968481E00F097FC00200B490860D6
:102E700001200B490860FFF7F0FEFFF7B0FF10BD1F
:102E8000000C0040988123428C000020000070411B
:102E9000000020416C0000205C000020C0030020E6
:102EA0007800002010B501209A4908609A49C1F8BD
:102EB00080010220FFF737FB0020964908600220BE
:102EC000FFF731FB00209449C1F8800110BD10B517
:102ED00000209049086001208F49C1F8800102203C
:102EE000FFF721FB01208B4908600220FFF71BFB45
:102EF00010BD10B504468748046001208649C1F81A
:102F000080010220FFF70FFB00208249091F0860A3
:102F10000220FFF708FB10BD10B501207D49091FF5
:102F200008600220FFF7FFFA7C48006820F0F000FC
:102F30007A4908600846006840F080000860022076
:102F4000FFF7F1FA7448D0F80401C4B20220FFF789
:102F5000EAFA7248006820F0F000704908600846FC
:102F6000006840F03000086000206A49091F0860CE
:102F70000220FFF7D8FA204610BD70B505460024A0
:102F800015E005FA04F0C0F3C010624908600220A1
:102F9000FFF7C9FA01206049C1F880010220FFF75C
:102FA000C2FA00205B49091F0860601CC4B2082CEB
:102FB000E7DBFFF7B1FF70BD70B500240120554974
:102FC00008600220FFF7AFFA5448006820F0F000D4
:102FD000524908600846006840F0800008600025FB
:102FE00019E00220FFF79FFA6006040E012049490C
:102FF000091F08600220FFF796FA4748D0F804013D
:103000002043C4B200204349091F08600220FFF793
:103010008AFA681CC5B2082DE3DB4048006820F03E
:10302000F0003E4908600846006840F03000086043
:10303000204670BD70B505460C46FFF733FF3C20B7
:10304000FFF79BFF2846FFF798FF2046FFF795FF05
:10305000FFF73DFF70BD70B50446FFF723FF3C202E
:10306000FFF78BFF2046FFF788FFFFF71BFF3D2090
:10307000FFF783FFFFF7A0FF05460120FFF739FFA9
:10308000FFF725FF284670BD10B5FFF70BFF3C206A
:10309000FFF773FF0320FFF770FFFFF703FF3D20EB
:1030A000FFF76BFF00240EE0FFF786FF1C49085571
:1030B000052C03D10120FFF71CFF02E00020FFF7E1
:1030C00018FF601CC4B2062CEEDBFFF700FF0520E2
:1030D000FFF74DFA10BD10B51248806940F040006E
:1030E000104988610D48006820F0FF000B49086016
:1030F0000846006840F07700086008480C30006817
:1031000040F0030005490C31086000210220FFF760
:1031100091FF10BD840123420000234200180140AA
:10312000840000200010024070B504460D460826B9
:1031300025B97102C048FDF790FD04E04FF48051BD
:10314000BD48FDF788FD19E04FF40051BA48FDF77E
:1031500084FD04F0800028B14FF40061B648FDF70B
:103160007AFD04E04FF40061B348FDF776FD4FF4BB
:103170000051B148FDF76FFD6006040E3000A6F166
:103180000101CEB2E0D170BD10B500210C20FFF7D7
:10319000CBFF00218020FFF7C7FF002405E00121BD
:1031A0000020FFF7C1FF601C84B2B4F5FC7FF6DBA2
:1031B00010BD10B5044600212120FFF7B5FF44F0F3
:1031C00080000021FFF7B0FF00212020FFF7ACFFB7
:1031D00010BD10B54FF480619748FDF73EFD01200A
:1031E000FFF7C5F94FF480619348FDF734FD4FF4C4
:1031F00000719148FDF72FFD0120FFF7B8F94FF45A
:1032000000718D48FDF729FD00212120FFF78CFF7B
:103210000021C820FFF788FF00210620FFF784FF68
:1032200000211320FFF780FF00212020FFF77CFF03
:1032300000210C20FFF778FF4420FFF7BAFF10BDF4
:1032400008B501214020FDF715FF4FF47850ADF887
:10325000000003208DF8020010208DF8030069465D
:103260007548FDF74BFCFFF7B4FFFFF78DFF08BD76
:1032700070B504460D46532C00DD5324052D00DDAA
:10328000052545F040000021FFF74EFF44F0800087
:103290000021FFF749FF70BD2DE9F04704460D46B8
:1032A0009046994600210C20FFF73EFF0021802028
:1032B000FFF73AFF2E4612E0274609E0F1B2F8B2D6
:1032C000FFF7D6FF01210020FFF72EFF781C87B201
:1032D00004EB0800401CB842F0DC701C86B205EB21
:1032E0000900401CB042E7DCBDE8F0872DE9F04161
:1032F00006460F46144639463046FFF7B9FFA4F19B
:103300002000C4B200250AE004EB44014B4A02EB62
:103310004101485D0121FFF707FF681CC5B2072D79
:10332000F2DBBDE8F08170B505460E46144610E0AC
:1033300014F8012B31462846FFF7D8FFA81DC5B267
:10334000542D06DD0025701CC6B2641E052E00DD5E
:10335000002620780028EBD170BD10B50246012070
:1033600000E050430B00A1F10104E1B2F9D110BD1E
:103370002DE9F04780460F4615460024A1462E460B
:1033800025B9F9B230224046FFF7B0FF04E00A2029
:10339000B6FBF0F6601CC4B2002EF8D1A1461BE0CB
:1033A000601EC1B20A20FFF7D8FF0646B5FBF6F053
:1033B0000A21B0FBF1F201FB120000F1300AF9B270
:1033C000A9EB040202EB420208EB4202D0B25246E1
:1033D000FFF78CFF601EC4B2002CE1D1BDE8F0877E
:1033E0002DE9F04107460E46154631463846FFF7AF
:1033F0003FFF002409E005EB4501114A02EBC10142
:10340000085D0121FFF790FE641C0C2CF3DB701C9F
:10341000C1B23846FFF72CFF0C2409E005EB45014B
:10342000074A02EBC101085D0121FFF77DFE641C24
:10343000182CF3DBBDE8F08100180140804A000839
:10344000A84C00081FB501214648FDF728FC0121C2
:103450001120FDF70FFE0420ADF80C0010208DF8B0
:103460000F0003208DF80E0003A93F48FDF746FB2F
:103470000820ADF80C0028208DF80F0003A93A4869
:10348000FDF73CFB03210220FDF74EFC08200190D4
:1034900000208DF8080008208DF8090001208DF823
:1034A0000A0001A8FDF74AFA09208DF80000012062
:1034B0008DF8010002208DF8020001208DF8030034
:1034C0006846FDF7C4F91FBD2DE9F0474FF000092C
:1034D000CA460A20FFF727F80820FDF795FA78B3C7
:1034E00000214FF08040FEF7EDFC01218807FEF738
:1034F00055FA00BF1D48006881B21B48FDF791FBDB
:103500000028F7D100214FF08040FEF747FA4FF036
:103510008040FEF7FAFC00EB800000EB0010440056
:10352000204600F0DCFE07460022114B00F0E6FCCE
:10353000054600F0F5FB0F4908600820FDF775FA15
:10354000BDE8F08710B5012008497C3108601420DF
:10355000FEF7E9FF00200849C1F888013220FFF793
:1035600006F810BD00023000001001400C0122429C
:10357000000059408C000020000022422DE9F04F4D
:103580008AB080460E469946DDE91374159D0021E8
:1035900028E04FF0000B4DF821B007EB870B06EB4E
:1035A000CB0B5BF821B045F821B0002008E04FF0CC
:1035B000FF3BC1EB011E04EB8E0E4EF820B0401C09
:1035C0009042F4DB55F821B0BBF57A7F09DAC1EB04
:1035D000011B44F82B70C1EB011B04EB8B0BCBF8E8
:1035E0000410491C9142D4DB4FF0000B45F827B082
:1035F0004FF0010B4DF827B0DA4666E04FF47A7CC5
:1036000000200CE05DF820B0BBF1000F06D155F8AA
:1036100020B0E34502DA014655F820C0401C904234
:10362000F0DB4FF0010B4DF821B0002049E05DF8D0
:1036300020B0BBF1000F43D1BCF57A7F40DA01EB3B
:10364000810B06EBCB0B5BF820B0BBF57A7F37DA4A
:1036500001EB810B06EBCB0B5BF820B0E34455F894
:1036600020E0F3452CDA01EB810B06EBCB0B5BF88A
:1036700020B0E34445F820B000231EE0C1EB011B5D
:1036800004EB8B0B5BF823B0C0EB001E04EB8E0E3B
:103690004EF823B0C0EB001B04EB8B0B5BF823B0A0
:1036A0000BF1010BBBF1000F06D1C0EB001B04EBCB
:1036B0008B0B4BF8230002E05B1C9342DEDB00BF68
:1036C000401C9042B3DB0AF1010A924596DB0AB036
:1036D000BDE8F08F3EB50546002403E04A4840F8B7
:1036E0002440641C494800688442F7DB4848494943
:1036F000CDE90051029048480368444847490268B0
:103700004148FFF73BFF3EBD10B50146002038E0C1
:103710004A1EC2EB02123F4B03EB820252F82020FA
:10372000002A2DDB3E4A1268521C3D4B1A604A1E8D
:10373000C2EB0212374B03EB8203421C53F82220E8
:10374000002A1DDB4A1EC2EB0212324B03EB82023F
:1037500052F8202002EB8202324B03EBC2034A1ED6
:10376000C2EB02122B4C04EB8204421C54F82220C0
:1037700053F822202C4B43F8202001222B4B1A60B7
:10378000401C8842C4DB10BD0146274850F8210088
:1037900070471E480068704730B50146FFF7F9FFD3
:1037A00002464FF47A73501EC0EB0010194C04EB24
:1037B000800050F8210000EB80001A4C04EBC0049C
:1037C000501EC0EB0010134D05EB8005481C55F84A
:1037D000200044F82030501EC0EB00100D4C04EBCC
:1037E000800050F8210000EB80000C4C04EBC0047A
:1037F000501EC0EB0010074D05EB8005481C55F826
:10380000200044F8203030BD8C04002094000020BB
:103810004C080020C804002098000020A0000020D0
:103820009C0000203002002088080020C0030020F7
:1038300070477047704770477047000000487047F6
:10384000B00800207546FFF7F9FFAE46050069464F
:10385000534620F00700854618B020B5FEF78EFDD0
:10386000BDE820404FF000064FF000074FF0000881
:103870004FF0000B21F00701AC46ACE8C009ACE802
:10388000C009ACE8C009ACE8C0098D4670470446E1
:10389000AFF300802046FCF7B6FC490050EAC12097
:1038A00018BF04204A0D18BF40F0010040F2FF721B
:1038B000B2EB515F08BF40F00200012808BF0520AD
:1038C00070472DE9F0414F1E00EBC7010446D1E9D6
:1038D000000115461E4637F006020DD02A46334633
:1038E00000F050FD7F1E04EBC703D3E9002300F076
:1038F00049FA37F00602F1D1022F25D0042F13D058
:10390000062F18BFBDE8F0812A46334600F03AFD85
:10391000D4E90A2300F036FA2A46334600F032FD95
:10392000D4E9082300F02EFA2A46334600F02AFD97
:10393000D4E9062300F026FA2A46334600F022FD99
:10394000D4E9042300F01EFA2A46334600F01AFD9B
:10395000D4E9022300F016FA2A46334600F012FD9D
:10396000D4E90023BDE8F04100F00CBA024A00207F
:10397000110701F03FB8000001FDFFFF2DE9F84FEE
:1039800004460D4621F0004000917449814213DC49
:103990007349884201DC08D13CB120462946BDE884
:1039A000F84F4FF0010201F025B86E48002DCCBF52
:1039B0006D496E49BDE8F88F6D49814211DD6D4951
:1039C0008142D8BF4FF0FF366DDD20462946FFF714
:1039D00064FF042808BFFFF7C9FF20462946BDE859
:1039E000F88F6549654F25F00045814233DD644914
:1039F000814219DD002632464FF080432046294699
:103A000000F0C0F980468A4601222046294600F08F
:103A1000F1FF00223B4600F0F5FD4246534600F020
:103A20006DFA04460D463EE001260022BA463B46AA
:103A30002046294600F0A6F980460F46002253464C
:103A40002046294600F0DEFD42463B4600F056FA8D
:103A500004460D4627E04B4981421BDDDFF82881F3
:103A60000226002243462046294600F08BFC002215
:103A70003B4600F087F907468A4600224346204627
:103A8000294600F0BFFD3A46534600F037FA044697
:103A90000D4608E0032622462B4600203B4900F055
:103AA0002DFA04460D4622462B461046194600F0D4
:103AB00069FC8B46824602460B4600F063FC0746D3
:103AC0000246334888460B4606217844FFF7F9FE44
:103AD00052465B4600F056FC82462E488B463A46DC
:103AE000434605217844FFF7ECFE3A46434600F092
:103AF00049FC02460B46002E504659460CDA00F0AF
:103B000041F922462B4600F03DFC01B022462B46EF
:103B1000BDE8F04F00F06ABD00F034F922462B46B4
:103B200000F030FC1C4A7A4402EBC603D3E90023C0
:103B300000F068FD22462B4600F064FD174A7A44E7
:103B400002EBC603D3E9002300F050FD009A002ADF
:103B5000B8BF81F00041BDE8F88F000000001044BC
:103B60000000F07F182D4454FB21F93FFB21F9BFE1
:103B70000000DC3F0000203E0000F33F0000F03F6B
:103B80000000E63F008003400000F83F0000F0BF67
:103B90001A130000D8120000761200003E12000036
:103BA0002DE9F04D9446CCF1000423F000464CEA98
:103BB0000404524F46EAD4749A46884621F00042E3
:103BC000BC4206D8454240EA050442EAD474BC42ED
:103BD00004D9BDE8F04D624600F0D4B8AAF14055D2
:103BE000A5F17F6555EA0C040BD0022404EAAA74FF
:103BF000434DDFF810E144EAD87452EA000B04D0D8
:103C00000CE0BDE8F04DFFF7B9BE002C14BF012C4D
:103C1000BDE8F08D022C30D0032C32D056EA0C0BCC
:103C20000AD0BE4220D1BA4209D126F0804622F005
:103C300080423346114617E000291ADB25E0DFF801
:103C4000C8B0FB44002C04BFDBE90001BDE8F08DE7
:103C5000012C02BFDBE9000181F00041BDE8F08DDD
:103C6000022C0AD0032C0CD0BA4212D1B8F1000FAA
:103C70000BDA23482549BDE8F08D28462449BDE8E4
:103C8000F08D28467146BDE8F08D1D482149BDE8FC
:103C9000F08D921B12153C2AC4BF19481D490EDC39
:103CA000BAF1000FBEBF12F13C0F0020014606DB47
:103CB000624600F023F921F00041FFF75FFE002C7F
:103CC00008BFBDE8F08D012C04BF81F00041BDE8C4
:103CD000F08D114A114B022C07D000F093FC2A46BC
:103CE000BDE8F04D0A4B00F08DBC00F08BFC2A467D
:103CF000BDE8F04D064B00F079BC00000000F07FFD
:103D0000182D4454FB2109C0D2110000FB21F9BF3A
:103D1000FB210940FB21F93F075C143326A6A13C97
:103D200021F00042A2F16052B2F5801F01F0004381
:103D300028BFD2F17F6C0BD95FEA001C43EAC202B4
:103D400042EB507018BF704728BF20F00100704749
:103D5000B2F5801FBCBF184670474FEA410C1CF5F6
:103D6000001F02D2084600F0DDBD70B500F0B4FBC4
:103D700000000089FFF7F6BF4FF00040A0F580007B
:103D80007047000010B591EA030F48BF83F000436D
:103D900000F14084841A71EB030C05D2121943EB35
:103DA0000C03001B61EB0C01DFF824E14FEA115416
:103DB000A4EB135C1EEA430F18BF9EEA445F73D066
:103DC00023EA0E03DCF1200E21EA045143F48013B0
:103DD00032D322FA0CFE10EB0E0023FA0CFE41EB5C
:103DE0000E01CCF1200E03FA0EFE10EB0E0051F185
:103DF0000001B1F5801FCCF1200E32D201EB04514D
:103E000012FA0EF2BDE8104058BF7047401C38BF90
:103E10005FEA420218BF7047002814BF20F001007B
:103E200041F100014FEA410313F5001F38BF70470D
:103E3000A1F1C04100F09EBB012A43EB0302ACF1AB
:103E4000200CDCF11F0E32BF4FF0000E23FA0CF3F2
:103E500010EB030041EB0451B4EB115FD0D0A1EBA8
:103E6000045101F5801149085FEA300001EB04516B
:103E70000ED350F1000038BF12FA0EFE08D1BDE893
:103E80001040C9E7401C38BF5FEA4202CAD1C3E70D
:103E9000BDE810404FEA410313F5001F38BF7047DB
:103EA000A1F1C04100F066BB9EEA445F08D011EA70
:103EB0005E0FBDE8104004BF01F0004100207047D4
:103EC000BDE8104070B500F007FB00BF64FBBE3ECC
:103ED0000000E0FF02494FF0000000F059BD00BFB4
:103EE0000000F87F491058BFC1F140415B1058BF36
:103EF000C3F140438B42EFF3008070472DE9C0418E
:103F000030B4DFF8A0C23CEA111418BF3CEA131425
:103F100000F0EC8081EA03051CEA111444EAD57430
:103F200018BF1CEA131500F0C780A4EB05044FF07E
:103F3000004545EAC12145EAC32341EA505143EA1D
:103F4000525304F17F74994204F500344FEAC020C3
:103F50004FEAC22208BF904200F09C804FEA1365EE
:103F60000FF24016765D4FEA134506FB05F7C7F1E1
:103F7000807706FB07F74FEAD737A7FB036876423F
:103F8000C8F58038A7FB06CE38BFA8F1010807FBAB
:103F900008E64FF0000EA6FB028CE6FB03CEDCF138
:103FA000000CCEF1004E38BFAEF1010EA6FB0C584E
:103FB0004FF000074FF00005E6FB0E87A1FB08C697
:103FC000A0FB07CE16EB0E0645F10005E1FB0765E9
:103FD00015F1E04E7EBFA4F580345FEA46066D41E0
:103FE00016F1800745F100054FEA17274FEA0666EC
:103FF00047EA0567A6F1DE46B6F1805F4FEA152570
:104000001FD9384624F0010C05EBC471BCF1FE6FDA
:1040100001EB0C1102D8F0BCBDE8008124425CBF6A
:1040200001F5801E9EEAC47F02D4F0BCBDE8008189
:10403000244238D4F0BCA1F1C041BDE8004100F0F9
:1040400099BA4FEAD22242EA43524FEAD323A7FB5E
:1040500002864FEAD02040EA415007FB03661EEA81
:104060000E0F4FEAD12105FB026658BFA6EB0056A2
:10407000B6EB00564FEA520E4EEAC37E18EB0E0E18
:1040800056EB530EBDD518EB02085E417F1C55F16F
:104090000005B6E74FF480154FF000074FF000061B
:1040A0004FF00008ADE7F0BC4FF0000001F1C04157
:1040B00001F00041BDE8008111EA0C1F0CEA131564
:1040C00000D00CE013EA0C1F00F025804FF0000038
:1040D000F0BC81EA030101F00041BDE80081F0BCC1
:1040E00081EA0301BDE8004100F044BAF0BCBDE83C
:1040F000004170B500F0F0F9097EFC3E00F007B811
:1041000081EA03014FF0000001F00041704781EAAD
:10411000030100F02FBAF0BC4FF000002249BDE8C7
:1041200000417047FFFDFBF9F7F5F4F2F0EEEDEB1F
:10413000E9E8E6E4E3E1E0DEDDDBDAD8D7D5D4D3A5
:10414000D1D0CFCDCCCBCAC8C7C6C5C4C2C1C0BFF1
:10415000BEBDBCBBBAB9B8B7B6B5B4B3B2B1B0AFF7
:10416000AEADACABAAA9A8A8A7A6A5A4A3A3A2A1DB
:10417000A09F9F9E9D9C9C9B9A9999989797969596
:1041800095949393929191908F8F8E8E8D8C8C8B32
:104190008B8A8989888887878685858484838382BA
:1041A000828181800000FF070000F87F51EA030C44
:1041B00017D41CF5801F58BFBCF5801F00F1068086
:1041C000994218BF704708BF9042704707D711F552
:1041D000801F58BF13F5801F19D499427047894238
:1041E00070471CF5801F08D5BCF5801FF7D58B42A2
:1041F00018BF704708BF824270474FF4001C1CEB89
:10420000410F38BF1CEB430F01D28B42704770B592
:1042100000F062F9922449004FF000514FF08053B2
:10422000FFF760BE4FEA41034FEA5353A3F58063A3
:10423000D3F11E03C8BFD3F1210C0CDD4FF00042B7
:1042400042EAC12242EA505232FA03FC8CEAE17C93
:10425000ACEBE1707047102BC4BF0020704703F532
:10426000787CBCF1FF3F04D06FF0004282EA21006D
:10427000704770B500F030F94992248000207047F3
:10428000F2E700004FEA1153A3F58063D3F11E0358
:10429000A8BFD3F1200C08DB4FF0004242EAC12254
:1042A00052EA505232FA03F0704709420BD4102BF5
:1042B000C4BF0020704703F5787CBCF1FF3F05D0F8
:1042C0004FF0FF3070474FF00000704770B500F0BE
:1042D00003F900BF4992248000207047F0E710F0F6
:1042E000004248BF4042B0FA80F310FA03F10AD00E
:1042F000C3F11D0303F580634FEA415002EB035203
:1043000002EBD12170474FF00000704751EA030CD7
:1043100017D41CF5801F58BFBCF5801F00F1068024
:10432000994218BF704708BF9042704707D711F5F0
:10433000801F58BF13F5801F19D4994270478942D6
:1043400070471CF5801F08D5BCF5801FF7D58B4240
:1043500018BF704708BF824270474FF4001C1CEB27
:10436000410F38BF1CEB430F01D28B42704770B531
:1043700000F0B2F8922449004FF000514FF0805302
:10438000FFF7B0BDDFF848C170B51CEA111E1EBFB3
:104390001CEA13159EEA0C0F95EA0C0F00F06F80D3
:1043A00081EA030423EA4C134EEAD47E21EA4C113D
:1043B00041F4801143F48013AE44A1FB024CA0FBF6
:1043C0000365AEF17F7E361955EB0C05A1FB034C5E
:1043D0004CF10003A0FB021C16EB0C06654153F1E7
:1043E0000003094218BF46F0010613F4007F0BD109
:1043F0004FEA03314FEA0530340341EA155140EAF0
:1044000016506FF003020AE04FEAC3214FEAC520BD
:10441000F40241EA555140EA56506FF0020202EBB5
:104420002E4201EB025585EACE710AD05FEA440CB8
:1044300018BF24F0004450F1000041F1000120EACF
:10444000D47040F2FE7C624500D270BDA84214BF19
:104450004FF080444FF04044002E08BF0024BEF1CE
:10446000806FA8BFA1F1C041BDE8704080F282809A
:104470004FF0000001F1C04101F0004170479EEA99
:104480000C0F0CEA131518BF95EA0C0F06D04FF06D
:10449000000081EA030E0EF0004170BD00F01CF830
:1044A0008900013E00F007B800F009B84FEA430C5C
:1044B0005FEA5C5C08D081EA030100F05BB84FEA78
:1044C000410C5FEA5C5CF6D14FF000000149704797
:1044D0000000FF070000F87F0EF1020E2EF0030E21
:1044E0005EF8046B364205D4012A43EB030515F54B
:1044F000001F12D8012841EB010C1CF5001F0CD83D
:104500000ED14FEAD17C15F5001F0CEB4C0C0CF1D1
:10451000020C08BF4CEBD37C04E04FF0080C01E028
:104520004FEAD37C0CEB4C0526FA05F606F007069D
:10453000B6F1040C06D20EEB860CBDE870404CF0D0
:10454000010C6047DFE80CF0090B02024FF000415C
:104550004FF00000A1F5002170BD1946104601285A
:1045600051EB010418BFD4F5001484BF002001F002
:10457000004170BD0808A0F500114FEA31017047F5
:1045800053EA010C17D41CF5801F58BFBCF5801FDF
:1045900000F106808B4218BF704708BF8242704707
:1045A00007D713F5801F58BF11F5801F19D48B4210
:1045B00070479B4270471CF5801F08D5BCF5801FD3
:1045C000F7D5994218BF704708BF904270474FF423
:1045D000001C1CEB430F38BF1CEB410F01D299426A
:1045E00070470FB40CBC03BCFFF7C1BE91EA030FC8
:1045F00010B581F000413FF5CDAB83F0004300F0F2
:1046000009B8000010B591EA030F48BF83F00043DA
:104610003FF5C0AB841A71EB030C07D212198CF072
:10462000004C43EB0C03001B61EB0C01DFF8A4E131
:104630004FEA1154A4EB135C1EEA430F18BF9EEA25
:10464000445F00F0B08023EA6E03524221EA045135
:10465000C3EB6E0338BF5B1EDCF1200E25D322FABC
:104660000CFE10EB0E0043FA0CFE41EB0E01CCF1F8
:10467000200E03FA0EFE10EB0E0051F10001CCF1FA
:10468000200E29D412FA0EF201EB0451BDE81040BD
:1046900058BF7047401C1CBFB2F1004F7047002844
:1046A0000CBF491C20F00100704712EB020E43EBD7
:1046B000030218BF4FF0010E4EEA4202ACF1200C8B
:1046C000DCF11E0E54D943FA0CFE10EB0E0051F132
:1046D000FF31CCF11E0ED5D50EF1010E12FA0EFEF1
:1046E000404141EB010101EB445C5FEA5C5C10D9A5
:1046F00010EBDE7001EB045138BFBEF1004FBDE896
:10470000104018BF704700280CBF491C20F0010062
:10471000704730D24FEAD42C11F5001124F4006414
:104720001BD0B1FA81F20B3AA41AA41ED2F12003D5
:10473000914030FA03F31943904001EBCC71002C07
:1047400001EB0451BDE81040A8BF704701F1C04122
:104750004FF0000001F000417047B0FA80F310FA0A
:1047600003F100D110BDE41A173C4805C90AE4E77B
:1047700001EB045110BD491001EB0451BDE810409C
:104780004FEA300002E04FF0000170474A0008BFD6
:104790000042F8D0B2F5001F28BF704701F0004179
:1047A0004FF0000070479EEA445F07D011EA5E0FA9
:1047B000BDE8104004BF002100207047BDE8104054
:1047C00070B5FFF789FE00BF40DFF63E83F0004181
:1047D000104670470000E0FF401058BFC0F1404055
:1047E000491058BFC1F140418142EFF3008070474A
:1047F000C10DD1F19E0206DB4FEA002343F00043D6
:1048000023FA02F07047004207D54FEA4001B1F1A8
:10481000FE4F02D24FF00000704710B500F03CF898
:1048200049922480002070476FEA20007047000002
:1048300050EA010C00F113801CF5000F58BFBCF5C5
:10484000000F01D48842704707D710F5000F58BFFA
:1048500011F5000F15D488427047894270471CF546
:10486000000F04D5BCF5000FF7D5814270474FF01B
:10487000807C1CEB400F38BF1CEB410F01D2814202
:10488000704710B500F008F8922449004FF000502E
:104890004FF08051FFF7A0BF0EF1020E2EF0030E75
:1048A0005EF8044B244204D44FEA4102B2F17F4F38
:1048B00011D84FEA4003B3F17F4F0CD80ED14FEA25
:1048C000D07CB2F17F4F0CEB4C0C0CF1020C08BF0A
:1048D0004CEBD17C04E04FF0080C01E04FEAD17CB6
:1048E0000CEB4C0324FA03F404F00704B4F1040CB9
:1048F00006D20EEB840CBDE810404CF0010C604772
:10490000DFE80CF0070802024FF00040A0F580003D
:1049100010BD0846420018BFD2F1807288BF00F077
:10492000004010BDFF2141EAD050C005704751EA58
:10493000000C00F113801CF5000F58BFBCF5000FF0
:1049400001D48142704707D711F5000F58BF10F509
:10495000000F15D481427047894270471CF5000F43
:1049600004D5BCF5000FF7D5884270474FF0807C26
:104970001CEB410F38BF1CEB400F01D2884270473F
:1049800080EA010081EA000180EA0100FFF779BFB7
:104990000CF00F03092B08BF082000F059800A2BE8
:1049A0000BD0082B18BF704708BF1CF0400F0AD06F
:1049B0004FF000004FF0000170471CF0400F18BF8F
:1049C0004FF0004070471CF0100F08D020F07043EB
:1049D00000F07F4242EAD3014FEA4370704700F093
:1049E000604021F07F4242EA000201F07F4040EA4D
:1049F000727070474FF0FF0C4CF4E06C1CEA1153DE
:104A00001CBF9CEA030C9445C2BFDA4201EB025181
:104A10007047002B0DD0BCF1000F0FD0002A01F021
:104A20000041A4BF41F0E04141F07F614FF0000040
:104A3000704701F000414FF00000704750EA013329
:104A40004FF09B0C18BF4CF0806C7FF443AA70476A
:104A50001CF4801F11D01CF4E02F03D06FEACC317E
:104A6000490070474FF04050EFF3008222F070424F
:104A700042EA000282F3008870474FF0000070475E
:104A80000000000000000000002F000000000700F0
:104A9000070000147F147F1400242A7F2A1200626A
:104AA0006408132300364955225000000503000016
:104AB00000001C224100000041221C000014083E9E
:104AC00008140008083E0808000000A06000000864
:104AD00008080808000060600000002010080402B8
:104AE000003E5149453E0000427F40000042615176
:104AF0004946002141454B31001814127F10002710
:104B000045454539003C4A494930000171090503D2
:104B100000364949493600064949291E0000363603
:104B20000000000056360000000814224100001466
:104B30001414141400004122140800020151090643
:104B400000324959513E007C1211127C007F4949C4
:104B50004936003E41414122007F4141221C007FF5
:104B600049494941007F09090901003E4149497A03
:104B7000007F0808087F0000417F4100002040417D
:104B80003F01007F08142241007F40404040007FE9
:104B9000020C027F007F0408107F003E4141413E2D
:104BA000007F09090906003E4151215E007F091975
:104BB00029460046494949310001017F0101003F72
:104BC0004040403F001F2040201F003F4038403FF2
:104BD0000063140814630007087008070061514956
:104BE000454300007F41410000552A552A550000E9
:104BF00041417F0000040201020400404040404067
:104C0000000001020400002054545478007F4844FE
:104C1000443800384444442000384444487F003835
:104C20005454541800087E0901020018A4A4A47C5E
:104C3000007F080404780000447D40000040808428
:104C40007D00007F102844000000417F4000007C70
:104C500004180478007C080404780038444444387C
:104C600000FC242424180018242418FC007C0804C8
:104C7000040800485454542000043F444020003CA1
:104C80004040207C001C2040201C003C4030403C28
:104C9000004428102844001CA0A0A07C00446454B8
:104CA0004C441414141414148445F62CC15D55D5C9
:104CB000555DC10000000700070505070505070051
:104CC000B22AE688AAAAFFAAAABE880004030204A0
:104CD0000404070404040400FC00FF00F90909FFB0
:104CE0000909F900040201000100000700010100A8
:104CF000224A926702F2129792F202000107000024
:104D0000000704040404070008080808C83FC8088E
:104D1000080C080004040201000000010204040061
:104D20009C84959695D6B49487948C0000000004DA
:104D30000407000000000000040404847C1516141D
:104D4000F40604000404020100040404030000004B
:104D500010111111D13FD1111111100004040201E1
:104D60000000000102040400182A2A2EFAAEA9ADA0
:104D7000AB2918000404020505020205040404001E
:104D80004FBB610567ACDD3F182D4454FB21E93F63
:104D90009BF681D20B73EF3F182D4454FB21F93F52
:104DA000E2652F227F2B7A3C075C143326A6813CD8
:104DB000BDCBF07A8807703C075C143326A6913C83
:104DC000C4EB98999999C9BF711623FEC671BCBFEF
:104DD0006D9A74AFF2B0B3BF9AFDDE522DDEADBF57
:104DE0002F6C6A2C44B4A2BF0D5555555555D53F6F
:104DF000FF8300922449C23F6E204CC5CD45B73F8A
:104E0000513DD0A0660DB13FEB0D76244B7BA93F01
:104E100011DA22E33AAD903F0000000000000000EC
:104E2000404E000800000020C40300006C01000890
:104E3000F04E0008C40300204C0B0000D001000815
:104E40004008505F4E0000004106000A114E474CDA
:104E5000450044495300016004A24A040B60090163
:104E6000020304060708090C61100006410204064B
:104E7000080001120A8C520D7743E8030492010CDA
:104E8000011A0452043402150630214861245205E7
:104E9000600219145CD2054802110258E16C5203F9
:104EA0005802110784616C021103A80215046CA159
:104EB00024021503AC01126C021902D8A148071C88
:104EC00008004C2188E124062DC1900619C190529A
:104ED000872407201B019002218788E5FC61580583
:104EE0002E900615C1FC0689879021010000000064
:0400000508000131BD
:00000001FF
